
B4.elf:     file format elf32-avr

Sections:
Idx Name          Size      VMA       LMA       File off  Algn
  0 .data         00000026  00800100  0000012c  000001a0  2**0
                  CONTENTS, ALLOC, LOAD, DATA
  1 .text         0000012c  00000000  00000000  00000074  2**1
                  CONTENTS, ALLOC, LOAD, READONLY, CODE
  2 .comment      00000030  00000000  00000000  000001c6  2**0
                  CONTENTS, READONLY
  3 .note.gnu.avr.deviceinfo 00000040  00000000  00000000  000001f8  2**2
                  CONTENTS, READONLY
  4 .debug_aranges 00000028  00000000  00000000  00000238  2**0
                  CONTENTS, READONLY, DEBUGGING
  5 .debug_info   00000928  00000000  00000000  00000260  2**0
                  CONTENTS, READONLY, DEBUGGING
  6 .debug_abbrev 00000859  00000000  00000000  00000b88  2**0
                  CONTENTS, READONLY, DEBUGGING
  7 .debug_line   000002b0  00000000  00000000  000013e1  2**0
                  CONTENTS, READONLY, DEBUGGING
  8 .debug_frame  00000044  00000000  00000000  00001694  2**2
                  CONTENTS, READONLY, DEBUGGING
  9 .debug_str    0000041e  00000000  00000000  000016d8  2**0
                  CONTENTS, READONLY, DEBUGGING
 10 .debug_loc    000000c5  00000000  00000000  00001af6  2**0
                  CONTENTS, READONLY, DEBUGGING
 11 .debug_ranges 00000018  00000000  00000000  00001bbb  2**0
                  CONTENTS, READONLY, DEBUGGING

Disassembly of section .text:

00000000 <__vectors>:
   0:	45 c0       	rjmp	.+138    	; 0x8c <__ctors_end>
   2:	00 00       	nop
   4:	58 c0       	rjmp	.+176    	; 0xb6 <__bad_interrupt>
   6:	00 00       	nop
   8:	56 c0       	rjmp	.+172    	; 0xb6 <__bad_interrupt>
   a:	00 00       	nop
   c:	54 c0       	rjmp	.+168    	; 0xb6 <__bad_interrupt>
   e:	00 00       	nop
  10:	52 c0       	rjmp	.+164    	; 0xb6 <__bad_interrupt>
  12:	00 00       	nop
  14:	50 c0       	rjmp	.+160    	; 0xb6 <__bad_interrupt>
  16:	00 00       	nop
  18:	4e c0       	rjmp	.+156    	; 0xb6 <__bad_interrupt>
  1a:	00 00       	nop
  1c:	4c c0       	rjmp	.+152    	; 0xb6 <__bad_interrupt>
  1e:	00 00       	nop
  20:	4a c0       	rjmp	.+148    	; 0xb6 <__bad_interrupt>
  22:	00 00       	nop
  24:	48 c0       	rjmp	.+144    	; 0xb6 <__bad_interrupt>
  26:	00 00       	nop
  28:	46 c0       	rjmp	.+140    	; 0xb6 <__bad_interrupt>
  2a:	00 00       	nop
  2c:	44 c0       	rjmp	.+136    	; 0xb6 <__bad_interrupt>
  2e:	00 00       	nop
  30:	42 c0       	rjmp	.+132    	; 0xb6 <__bad_interrupt>
  32:	00 00       	nop
  34:	40 c0       	rjmp	.+128    	; 0xb6 <__bad_interrupt>
  36:	00 00       	nop
  38:	3e c0       	rjmp	.+124    	; 0xb6 <__bad_interrupt>
  3a:	00 00       	nop
  3c:	3c c0       	rjmp	.+120    	; 0xb6 <__bad_interrupt>
  3e:	00 00       	nop
  40:	3a c0       	rjmp	.+116    	; 0xb6 <__bad_interrupt>
  42:	00 00       	nop
  44:	38 c0       	rjmp	.+112    	; 0xb6 <__bad_interrupt>
  46:	00 00       	nop
  48:	36 c0       	rjmp	.+108    	; 0xb6 <__bad_interrupt>
  4a:	00 00       	nop
  4c:	34 c0       	rjmp	.+104    	; 0xb6 <__bad_interrupt>
  4e:	00 00       	nop
  50:	32 c0       	rjmp	.+100    	; 0xb6 <__bad_interrupt>
  52:	00 00       	nop
  54:	30 c0       	rjmp	.+96     	; 0xb6 <__bad_interrupt>
  56:	00 00       	nop
  58:	2e c0       	rjmp	.+92     	; 0xb6 <__bad_interrupt>
  5a:	00 00       	nop
  5c:	2c c0       	rjmp	.+88     	; 0xb6 <__bad_interrupt>
  5e:	00 00       	nop
  60:	2a c0       	rjmp	.+84     	; 0xb6 <__bad_interrupt>
  62:	00 00       	nop
  64:	28 c0       	rjmp	.+80     	; 0xb6 <__bad_interrupt>
  66:	00 00       	nop
  68:	26 c0       	rjmp	.+76     	; 0xb6 <__bad_interrupt>
  6a:	00 00       	nop
  6c:	24 c0       	rjmp	.+72     	; 0xb6 <__bad_interrupt>
  6e:	00 00       	nop
  70:	22 c0       	rjmp	.+68     	; 0xb6 <__bad_interrupt>
  72:	00 00       	nop
  74:	20 c0       	rjmp	.+64     	; 0xb6 <__bad_interrupt>
  76:	00 00       	nop
  78:	1e c0       	rjmp	.+60     	; 0xb6 <__bad_interrupt>
  7a:	00 00       	nop
  7c:	1c c0       	rjmp	.+56     	; 0xb6 <__bad_interrupt>
  7e:	00 00       	nop
  80:	1a c0       	rjmp	.+52     	; 0xb6 <__bad_interrupt>
  82:	00 00       	nop
  84:	18 c0       	rjmp	.+48     	; 0xb6 <__bad_interrupt>
  86:	00 00       	nop
  88:	16 c0       	rjmp	.+44     	; 0xb6 <__bad_interrupt>
	...

0000008c <__ctors_end>:
  8c:	11 24       	eor	r1, r1
  8e:	1f be       	out	0x3f, r1	; 63
  90:	cf ef       	ldi	r28, 0xFF	; 255
  92:	d0 e1       	ldi	r29, 0x10	; 16
  94:	de bf       	out	0x3e, r29	; 62
  96:	cd bf       	out	0x3d, r28	; 61

00000098 <__do_copy_data>:
  98:	11 e0       	ldi	r17, 0x01	; 1
  9a:	a0 e0       	ldi	r26, 0x00	; 0
  9c:	b1 e0       	ldi	r27, 0x01	; 1
  9e:	ec e2       	ldi	r30, 0x2C	; 44
  a0:	f1 e0       	ldi	r31, 0x01	; 1
  a2:	00 e0       	ldi	r16, 0x00	; 0
  a4:	0b bf       	out	0x3b, r16	; 59
  a6:	02 c0       	rjmp	.+4      	; 0xac <__do_copy_data+0x14>
  a8:	07 90       	elpm	r0, Z+
  aa:	0d 92       	st	X+, r0
  ac:	a6 32       	cpi	r26, 0x26	; 38
  ae:	b1 07       	cpc	r27, r17
  b0:	d9 f7       	brne	.-10     	; 0xa8 <__do_copy_data+0x10>
  b2:	13 d0       	rcall	.+38     	; 0xda <main>
  b4:	39 c0       	rjmp	.+114    	; 0x128 <_exit>

000000b6 <__bad_interrupt>:
  b6:	a4 cf       	rjmp	.-184    	; 0x0 <__vectors>

000000b8 <wait>:
#include <util/delay.h>
#include <avr/interrupt.h>

void wait( int ms )
{
	for (int i=0; i<ms; i++)
  b8:	18 16       	cp	r1, r24
  ba:	19 06       	cpc	r1, r25
  bc:	6c f4       	brge	.+26     	; 0xd8 <wait+0x20>
  be:	20 e0       	ldi	r18, 0x00	; 0
  c0:	30 e0       	ldi	r19, 0x00	; 0
	#else
		//round up by default
		__ticks_dc = (uint32_t)(ceil(fabs(__tmp)));
	#endif

	__builtin_avr_delay_cycles(__ticks_dc);
  c2:	e9 ef       	ldi	r30, 0xF9	; 249
  c4:	f0 e0       	ldi	r31, 0x00	; 0
  c6:	31 97       	sbiw	r30, 0x01	; 1
  c8:	f1 f7       	brne	.-4      	; 0xc6 <wait+0xe>
  ca:	00 c0       	rjmp	.+0      	; 0xcc <wait+0x14>
  cc:	00 00       	nop
  ce:	2f 5f       	subi	r18, 0xFF	; 255
  d0:	3f 4f       	sbci	r19, 0xFF	; 255
  d2:	28 17       	cp	r18, r24
  d4:	39 07       	cpc	r19, r25
  d6:	a9 f7       	brne	.-22     	; 0xc2 <wait+0xa>
  d8:	08 95       	ret

000000da <main>:
		_delay_ms( 1 );		// library function (max 30 ms at 8MHz)
	}
}

int main(void)
{
  da:	cf 93       	push	r28
  dc:	df 93       	push	r29
  de:	cd b7       	in	r28, 0x3d	; 61
  e0:	de b7       	in	r29, 0x3e	; 62
  e2:	a5 97       	sbiw	r28, 0x25	; 37
  e4:	0f b6       	in	r0, 0x3f	; 63
  e6:	f8 94       	cli
  e8:	de bf       	out	0x3e, r29	; 62
  ea:	0f be       	out	0x3f, r0	; 63
  ec:	cd bf       	out	0x3d, r28	; 61
	const unsigned char numbers[37] = {0x01, 0x02, 0x04, 0x08, 0x10, 0x20, 0x40, 0x80, 0x01, 0x02, 0x04, 0x08, 0x10, 0x20, 0x40, 0x80,
  ee:	85 e2       	ldi	r24, 0x25	; 37
  f0:	e0 e0       	ldi	r30, 0x00	; 0
  f2:	f1 e0       	ldi	r31, 0x01	; 1
  f4:	de 01       	movw	r26, r28
  f6:	11 96       	adiw	r26, 0x01	; 1
  f8:	01 90       	ld	r0, Z+
  fa:	0d 92       	st	X+, r0
  fc:	8a 95       	dec	r24
  fe:	e1 f7       	brne	.-8      	; 0xf8 <main+0x1e>
		0x01, 0x03, 0x07, 0x0F, 0x1F, 0x3F, 0x7F, 0xFF, 0x7F, 0x3F, 0x1F, 0x0F, 0x07, 0x03, 0x01,
	0x81, 0x89, 0x8B, 0xCB, 0xCF, 0xFF};

	DDRA = 0xFF;
 100:	8f ef       	ldi	r24, 0xFF	; 255
 102:	8a bb       	out	0x1a, r24	; 26
 104:	7e 01       	movw	r14, r28
 106:	86 e2       	ldi	r24, 0x26	; 38
 108:	e8 0e       	add	r14, r24
 10a:	f1 1c       	adc	r15, r1
 10c:	8e 01       	movw	r16, r28
 10e:	0f 5f       	subi	r16, 0xFF	; 255
 110:	1f 4f       	sbci	r17, 0xFF	; 255

	while (1)
	{
		int index = 0;
		while( index != sizeof(numbers)/sizeof(numbers[0])) {
			PORTA = numbers[index];
 112:	f8 01       	movw	r30, r16
 114:	81 91       	ld	r24, Z+
 116:	8f 01       	movw	r16, r30
 118:	8b bb       	out	0x1b, r24	; 27
			wait(1000);
 11a:	88 ee       	ldi	r24, 0xE8	; 232
 11c:	93 e0       	ldi	r25, 0x03	; 3
 11e:	cc df       	rcall	.-104    	; 0xb8 <wait>
	DDRA = 0xFF;

	while (1)
	{
		int index = 0;
		while( index != sizeof(numbers)/sizeof(numbers[0])) {
 120:	0e 15       	cp	r16, r14
 122:	1f 05       	cpc	r17, r15
 124:	b1 f7       	brne	.-20     	; 0x112 <main+0x38>
 126:	f2 cf       	rjmp	.-28     	; 0x10c <main+0x32>

00000128 <_exit>:
 128:	f8 94       	cli

0000012a <__stop_program>:
 12a:	ff cf       	rjmp	.-2      	; 0x12a <__stop_program>
