S01000005765656B335F42332E7372656381
S113000045C000004BC0000049C0000047C00000CC
S113001045C0000043C0000041C000003FC00000D4
S11300203DC000003BC0000039C0000037C00000E4
S113003035C0000033C0000031C000002FC00000F4
S11300402DC000002BC0000029C0000027C0000004
S113005025C0000023C0000021C000001FC0000014
S11300601DC000001BC0000019C0000017C0000024
S113007015C0000013C0000011C000000FC0000034
S11300800DC000000BC0000009C0000011241FBEF9
S1130090CFEFD0E1DEBFCDBF02D016C0B1CF8DE12E
S11300A085BD8FEF84BB87B7876087BF8AEF83BD29
S11300B021E08CB59DB588309D43D8F385B3822764
S10F00C085BB1DBC1CBCF5CFF894FFCF21
S9030000FC
