S01000005765656B335F42322E7372656382
S113000045C0000058C0000056C0000054C00000A5
S113001052C0000050C000004EC000004CC00000A0
S11300204AC0000048C0000046C0000044C00000B0
S113003042C0000040C000003EC000003CC00000C0
S11300403AC0000038C0000036C0000034C00000D0
S113005032C0000030C000002EC000002CC00000E0
S11300602AC0000028C0000026C0000024C00000F0
S113007022C0000020C000001EC000001CC0000000
S11300801AC0000018C0000016C0000011241FBED2
S1130090CFEFD0E1DEBFCDBF11E0A0E0B1E0E8E4F6
S11300A0F7E000E00BBF02C007900D92A430B10747
S11300B0D9F747D047C3A4CFAB9A8FEC97E0019709
S11300C0F1F700C00000AB988FEC97E00197F1F7CF
S11300D000C000000895CF93C82F85BBAA9AECDF17
S11300E0C295C07FC5BBAA9AE7DFCF910895CF938D
S11300F0DF93EC018881882329F02196ECDF899134
S11301008111FCCFDF91CF910895CF93C82F85BB88
S1130110AA98D2DFC295C07FC5BBAA98CDDFCF9184
S113012008958FEF84BB15BA80E285BBC5DF88E2F2
S1130130ECDF8CE0EADF86E0E8CF089581E0E5CFEC
S11301400895CF93DF9300D000D01F92CDB7DEB7D0
S11301502FEF8EE994E2215080409040E1F700C0F7
S11301600000DFDF11BA87E085BD0F2EF0E0EF2E2F
S1130170F1E0FF2EF02D8E010F5F1F4FDFDF84B5FE
S11301801F928F93FF92EF921F930F9312D0C80187
S1130190AEDF2FEF84E39CE0215080409040E1F7F4
S11301A000C000000F900F900F900F900F900F90D1
S11301B0E5CF0F931F93CF93DF93CDB7DEB72E9781
S11301C00FB6F894DEBF0FBECDBF0D891E8986E041
S11301D08C831A8309838FEF9FE79E838D83AE01FF
S11301E0475E5F4F6F89788DCE01019611D02F81C4
S11301F03885F801E20FF31F10822E960FB6F8949B
S1130200DEBF0FBECDBFDF91CF911F910F91089537
S11302102F923F924F925F926F927F928F929F9212
S1130220AF92BF92CF92DF92EF92FF920F931F9300
S1130230CF93DF93CDB7DEB72C970FB6F894DEBF1C
S11302400FBECDBF7C016B018A01FC0117821682AF
S1130250838181FFB0C1CE0101964C01F7019381E6
S1130260F60193FD859193FF81916F01882309F431
S11302709EC1853239F493FD859193FF81916F017D
S1130280853221F4B70190E0C7D1E8CF512C312C4D
S113029020E02032A0F48B3269F030F4803259F03F
S11302A0833269F420612CC08D3239F0803339F403
S11302B0216026C02260246023C0286021C027FD5D
S11302C027C030ED380F3A3078F426FF06C0FAE044
S11302D05F9E300D1124532E13C08AE0389E300DDA
S11302E01124332E20620CC08E3221F426FD5FC10E
S11302F0206406C08C3611F4206802C0883641F4AC
S1130300F60193FD859193FF81916F018111C1CF16
S1130310982F9F7D9554933028F40C5F1F4FFFE373
S1130320F9830DC0833631F0833771F0833509F0DA
S113033057C021C0F801808189830E5F1F4F442478
S11303404394512C540114C03801F2E06F0E711C17
S1130350F801A080B18026FF03C0652D70E002C0C3
S11303606FEF7FEFC5012C874CD12C0183012C85C5
S11303702F77222E16C03801F2E06F0E711CF8019F
S1130380A080B18026FF03C0652D70E002C06FEF2E
S11303907FEFC5012C872AD12C012C852068222EC1
S11303A0830123FC19C0832D90E048165906A0F45C
S11303B0B70180E290E030D13A94F5CFF50127FC03
S11303C0859127FE81915F01B70190E025D131101D
S11303D03A94F1E04F1A51084114510479F7DEC000
S11303E0843611F0893631F5F80127FF07C06081A2
S11303F07181828193810C5F1F4F08C0608171817C
S1130400072E000C880B990B0E5F1F4F2F76722E50
S113041097FF09C090958095709561957F4F8F4F98
S11304209F4F2068722E2AE030E0A4012DD1A82E1F
S1130430A81843C0853729F42F7EB22E2AE030E075
S113044025C0F22FF97FBF2E8F36C1F018F48835FE
S113045079F0ADC0803719F0883721F0A8C02F2F6C
S11304602061B22EB4FE0DC08B2D8460B82E09C05D
S113047024FF0AC09F2F9660B92E06C028E030E002
S113048005C020E130E002C020E132E0F801B7FE0F
S113049007C060817181828193810C5F1F4F06C008
S11304A06081718180E090E00E5F1F4FA401ECD069
S11304B0A82EA818FB2DFF777F2E76FE0BC0372DB4
S11304C03E7FA51450F474FE0AC072FC08C0372D98
S11304D03E7E05C0BA2C372D03C0BA2C01C0B52C02
S11304E034FF0DC0FE01EA0DF11D8081803311F44B
S11304F0397E09C032FF06C0B394B39404C0832F7D
S1130500867809F0B39433FD12C030FF06C05A2C2C
S1130510B31418F4530C5B18B32CB31460F4B70180
S113052080E290E03C8778D0B3943C85F6CFB31456
S113053010F43B1801C0312C34FF11C0B70180E323
S113054090E03C8769D03C8532FF16C031FD03C082
S113055088E790E002C088E590E0B7010CC0832FE3
S1130560867851F031FF02C08BE201C080E237FD92
S11305708DE2B70190E050D0A51430F4B70180E3C8
S113058090E04AD05A94F8CFAA94F401EA0DF11DF0
S11305908081B70190E040D0A110F6CF332009F458
S11305A05DCEB70180E290E037D03A94F7CFF701FF
S11305B08681978102C08FEF9FEF2C960FB6F89437
S11305C0DEBF0FBECDBFDF91CF911F910F91FF9082
S11305D0EF90DF90CF90BF90AF909F908F907F90DF
S11305E06F905F904F903F902F900895FC0105907D
S11305F0615070400110D8F7809590958E0F9F1F21
S11306000895FC016150704001900110D8F7809565
S113061090958E0F9F1F08950F931F93CF93DF9391
S1130620FB01238121FD03C08FEF9FEF28C022FF30
S113063016C046815781248135814217530744F4FB
S1130640A081B1819D012F5F3F4F318320838C9323
S1130650268137812F5F3F4F3783268310C0EB01FC
S1130660092F182F0084F185E02D0995892BE1F6D7
S11306708E819F8101969F838E83812F902FDF919E
S1130680CF911F910F910895FA01AA27283051F1B3
S1130690203181F1E8946F936E7F6E5F7F4F8F4FAF
S11306A09F4FAF4FB1E03ED0B4E03CD0670F781F0E
S11306B0891F9A1FA11D680F791F8A1F911DA11DF3
S11306C06A0F711D811D911DA11D20D009F468942C
S11306D03F912AE0269F11243019305D3193DEF6D4
S11306E0CF010895462F4770405D4193B3E00FD08A
S11306F0C9F7F6CF462F4F70405D4A3318F0495D75
S113070031FD4052419302D0A9F7EACFB4E0A69557
S11307109795879577956795BA95C9F70097610579
S1130720710508959B01AC010A2E069457954795CF
S113073037952795BA95C9F7620F731F841F951FC4
S10B0740A01D0895F894FFCFF9
S10707482564000020
S9030000FC
