:1000000045C00000ACC0000070C000005CC0000033
:100010005AC0000058C0000056C0000054C0000084
:1000200052C0000050C000004EC000004CC0000094
:100030004AC0000048C0000046C0000044C00000A4
:1000400042C0000040C000003EC000003CC00000B4
:100050003AC0000038C0000036C0000034C00000C4
:1000600032C0000030C000002EC000002CC00000D4
:100070002AC0000028C0000026C0000024C00000E4
:1000800022C0000020C000001EC0000011241FBEBE
:10009000CFEFD0E1DEBFCDBF11E0A0E0B1E0E8E3FB
:1000A000F2E000E00BBF02C007900D92AA30B1074A
:1000B000D9F721E0AAE0B1E001C01D92AC30B2074F
:1000C000E1F788D0B7C09CCF181619066CF420E071
:1000D00030E0E9EFF0E03197F1F700C000002F5F6A
:1000E0003F4F28173907A9F708951F920F920FB6AF
:1000F0000F9211240BB60F922F933F934F935F9360
:100100006F937F938F939F93AF93BF93EF93FF93DF
:1001100080910A0190910B018930910531F001968F
:1001200090930B0180930A0104C010920B0110926E
:100130000A018CE291E0C8DFFF91EF91BF91AF918E
:100140009F918F917F916F915F914F913F912F91EF
:100150000F900BBE0F900FBE0F901F9018951F921F
:100160000F920FB60F9211240BB60F922F933F935D
:100170004F935F936F937F938F939F93AF93BF93AF
:10018000EF93FF9380910A0190910B01009731F05A
:10019000019790930B0180930A0106C08AE090E0DA
:1001A00090930B0180930A018CE291E08DDFFF9127
:1001B000EF91BF91AF919F918F917F916F915F91DF
:1001C0004F913F912F910F900BBE0F900FBE0F904C
:1001D0001F901895CF93DF93CDB7DEB72A970FB650
:1001E000F894DEBF0FBECDBF8AE0E0E0F1E0DE01B3
:1001F000119601900D928A95E1F780EF81BB8FEF08
:100200008ABBEAE6F0E080818B60808389B78360F7
:1002100089BF7894E0910A01F0910B0181E090E0B0
:100220008C0F9D1FE80FF91F80818BBB84EF91E03D
:080230004BDFF0CFF894FFCF83
:0A0238003F065B4F666D7D077F6F88
:00000001FF
