
B3.elf:     file format elf32-avr

Sections:
Idx Name          Size      VMA       LMA       File off  Algn
  0 .data         0000000a  00800100  00000238  000002cc  2**0
                  CONTENTS, ALLOC, LOAD, DATA
  1 .text         00000238  00000000  00000000  00000094  2**1
                  CONTENTS, ALLOC, LOAD, READONLY, CODE
  2 .bss          00000002  0080010a  0080010a  000002d6  2**0
                  ALLOC
  3 .comment      00000030  00000000  00000000  000002d6  2**0
                  CONTENTS, READONLY
  4 .note.gnu.avr.deviceinfo 00000040  00000000  00000000  00000308  2**2
                  CONTENTS, READONLY
  5 .debug_aranges 00000038  00000000  00000000  00000348  2**0
                  CONTENTS, READONLY, DEBUGGING
  6 .debug_info   00000983  00000000  00000000  00000380  2**0
                  CONTENTS, READONLY, DEBUGGING
  7 .debug_abbrev 00000875  00000000  00000000  00000d03  2**0
                  CONTENTS, READONLY, DEBUGGING
  8 .debug_line   00000330  00000000  00000000  00001578  2**0
                  CONTENTS, READONLY, DEBUGGING
  9 .debug_frame  000000f4  00000000  00000000  000018a8  2**2
                  CONTENTS, READONLY, DEBUGGING
 10 .debug_str    00000434  00000000  00000000  0000199c  2**0
                  CONTENTS, READONLY, DEBUGGING
 11 .debug_loc    00000247  00000000  00000000  00001dd0  2**0
                  CONTENTS, READONLY, DEBUGGING
 12 .debug_ranges 00000028  00000000  00000000  00002017  2**0
                  CONTENTS, READONLY, DEBUGGING

Disassembly of section .text:

00000000 <__vectors>:
   0:	45 c0       	rjmp	.+138    	; 0x8c <__ctors_end>
   2:	00 00       	nop
   4:	ac c0       	rjmp	.+344    	; 0x15e <__vector_1>
   6:	00 00       	nop
   8:	70 c0       	rjmp	.+224    	; 0xea <__vector_2>
   a:	00 00       	nop
   c:	5c c0       	rjmp	.+184    	; 0xc6 <__bad_interrupt>
   e:	00 00       	nop
  10:	5a c0       	rjmp	.+180    	; 0xc6 <__bad_interrupt>
  12:	00 00       	nop
  14:	58 c0       	rjmp	.+176    	; 0xc6 <__bad_interrupt>
  16:	00 00       	nop
  18:	56 c0       	rjmp	.+172    	; 0xc6 <__bad_interrupt>
  1a:	00 00       	nop
  1c:	54 c0       	rjmp	.+168    	; 0xc6 <__bad_interrupt>
  1e:	00 00       	nop
  20:	52 c0       	rjmp	.+164    	; 0xc6 <__bad_interrupt>
  22:	00 00       	nop
  24:	50 c0       	rjmp	.+160    	; 0xc6 <__bad_interrupt>
  26:	00 00       	nop
  28:	4e c0       	rjmp	.+156    	; 0xc6 <__bad_interrupt>
  2a:	00 00       	nop
  2c:	4c c0       	rjmp	.+152    	; 0xc6 <__bad_interrupt>
  2e:	00 00       	nop
  30:	4a c0       	rjmp	.+148    	; 0xc6 <__bad_interrupt>
  32:	00 00       	nop
  34:	48 c0       	rjmp	.+144    	; 0xc6 <__bad_interrupt>
  36:	00 00       	nop
  38:	46 c0       	rjmp	.+140    	; 0xc6 <__bad_interrupt>
  3a:	00 00       	nop
  3c:	44 c0       	rjmp	.+136    	; 0xc6 <__bad_interrupt>
  3e:	00 00       	nop
  40:	42 c0       	rjmp	.+132    	; 0xc6 <__bad_interrupt>
  42:	00 00       	nop
  44:	40 c0       	rjmp	.+128    	; 0xc6 <__bad_interrupt>
  46:	00 00       	nop
  48:	3e c0       	rjmp	.+124    	; 0xc6 <__bad_interrupt>
  4a:	00 00       	nop
  4c:	3c c0       	rjmp	.+120    	; 0xc6 <__bad_interrupt>
  4e:	00 00       	nop
  50:	3a c0       	rjmp	.+116    	; 0xc6 <__bad_interrupt>
  52:	00 00       	nop
  54:	38 c0       	rjmp	.+112    	; 0xc6 <__bad_interrupt>
  56:	00 00       	nop
  58:	36 c0       	rjmp	.+108    	; 0xc6 <__bad_interrupt>
  5a:	00 00       	nop
  5c:	34 c0       	rjmp	.+104    	; 0xc6 <__bad_interrupt>
  5e:	00 00       	nop
  60:	32 c0       	rjmp	.+100    	; 0xc6 <__bad_interrupt>
  62:	00 00       	nop
  64:	30 c0       	rjmp	.+96     	; 0xc6 <__bad_interrupt>
  66:	00 00       	nop
  68:	2e c0       	rjmp	.+92     	; 0xc6 <__bad_interrupt>
  6a:	00 00       	nop
  6c:	2c c0       	rjmp	.+88     	; 0xc6 <__bad_interrupt>
  6e:	00 00       	nop
  70:	2a c0       	rjmp	.+84     	; 0xc6 <__bad_interrupt>
  72:	00 00       	nop
  74:	28 c0       	rjmp	.+80     	; 0xc6 <__bad_interrupt>
  76:	00 00       	nop
  78:	26 c0       	rjmp	.+76     	; 0xc6 <__bad_interrupt>
  7a:	00 00       	nop
  7c:	24 c0       	rjmp	.+72     	; 0xc6 <__bad_interrupt>
  7e:	00 00       	nop
  80:	22 c0       	rjmp	.+68     	; 0xc6 <__bad_interrupt>
  82:	00 00       	nop
  84:	20 c0       	rjmp	.+64     	; 0xc6 <__bad_interrupt>
  86:	00 00       	nop
  88:	1e c0       	rjmp	.+60     	; 0xc6 <__bad_interrupt>
	...

0000008c <__ctors_end>:
  8c:	11 24       	eor	r1, r1
  8e:	1f be       	out	0x3f, r1	; 63
  90:	cf ef       	ldi	r28, 0xFF	; 255
  92:	d0 e1       	ldi	r29, 0x10	; 16
  94:	de bf       	out	0x3e, r29	; 62
  96:	cd bf       	out	0x3d, r28	; 61

00000098 <__do_copy_data>:
  98:	11 e0       	ldi	r17, 0x01	; 1
  9a:	a0 e0       	ldi	r26, 0x00	; 0
  9c:	b1 e0       	ldi	r27, 0x01	; 1
  9e:	e8 e3       	ldi	r30, 0x38	; 56
  a0:	f2 e0       	ldi	r31, 0x02	; 2
  a2:	00 e0       	ldi	r16, 0x00	; 0
  a4:	0b bf       	out	0x3b, r16	; 59
  a6:	02 c0       	rjmp	.+4      	; 0xac <__do_copy_data+0x14>
  a8:	07 90       	elpm	r0, Z+
  aa:	0d 92       	st	X+, r0
  ac:	aa 30       	cpi	r26, 0x0A	; 10
  ae:	b1 07       	cpc	r27, r17
  b0:	d9 f7       	brne	.-10     	; 0xa8 <__do_copy_data+0x10>

000000b2 <__do_clear_bss>:
  b2:	21 e0       	ldi	r18, 0x01	; 1
  b4:	aa e0       	ldi	r26, 0x0A	; 10
  b6:	b1 e0       	ldi	r27, 0x01	; 1
  b8:	01 c0       	rjmp	.+2      	; 0xbc <.do_clear_bss_start>

000000ba <.do_clear_bss_loop>:
  ba:	1d 92       	st	X+, r1

000000bc <.do_clear_bss_start>:
  bc:	ac 30       	cpi	r26, 0x0C	; 12
  be:	b2 07       	cpc	r27, r18
  c0:	e1 f7       	brne	.-8      	; 0xba <.do_clear_bss_loop>
  c2:	88 d0       	rcall	.+272    	; 0x1d4 <main>
  c4:	b7 c0       	rjmp	.+366    	; 0x234 <_exit>

000000c6 <__bad_interrupt>:
  c6:	9c cf       	rjmp	.-200    	; 0x0 <__vectors>

000000c8 <wait>:
				clock value is set. This is used by _delay_ms inside
				util/delay.h
Version :    	DMK, Initial code
***********************/
{
	for (int i=0; i<ms; i++)
  c8:	18 16       	cp	r1, r24
  ca:	19 06       	cpc	r1, r25
  cc:	6c f4       	brge	.+26     	; 0xe8 <wait+0x20>
  ce:	20 e0       	ldi	r18, 0x00	; 0
  d0:	30 e0       	ldi	r19, 0x00	; 0
	#else
		//round up by default
		__ticks_dc = (uint32_t)(ceil(fabs(__tmp)));
	#endif

	__builtin_avr_delay_cycles(__ticks_dc);
  d2:	e9 ef       	ldi	r30, 0xF9	; 249
  d4:	f0 e0       	ldi	r31, 0x00	; 0
  d6:	31 97       	sbiw	r30, 0x01	; 1
  d8:	f1 f7       	brne	.-4      	; 0xd6 <wait+0xe>
  da:	00 c0       	rjmp	.+0      	; 0xdc <wait+0x14>
  dc:	00 00       	nop
  de:	2f 5f       	subi	r18, 0xFF	; 255
  e0:	3f 4f       	sbci	r19, 0xFF	; 255
  e2:	28 17       	cp	r18, r24
  e4:	39 07       	cpc	r19, r25
  e6:	a9 f7       	brne	.-22     	; 0xd2 <wait+0xa>
  e8:	08 95       	ret

000000ea <__vector_2>:
	}
}

/************************/
ISR( INT1_vect )
{
  ea:	1f 92       	push	r1
  ec:	0f 92       	push	r0
  ee:	0f b6       	in	r0, 0x3f	; 63
  f0:	0f 92       	push	r0
  f2:	11 24       	eor	r1, r1
  f4:	0b b6       	in	r0, 0x3b	; 59
  f6:	0f 92       	push	r0
  f8:	2f 93       	push	r18
  fa:	3f 93       	push	r19
  fc:	4f 93       	push	r20
  fe:	5f 93       	push	r21
 100:	6f 93       	push	r22
 102:	7f 93       	push	r23
 104:	8f 93       	push	r24
 106:	9f 93       	push	r25
 108:	af 93       	push	r26
 10a:	bf 93       	push	r27
 10c:	ef 93       	push	r30
 10e:	ff 93       	push	r31
	if(index != 9){
 110:	80 91 0a 01 	lds	r24, 0x010A	; 0x80010a <__data_end>
 114:	90 91 0b 01 	lds	r25, 0x010B	; 0x80010b <__data_end+0x1>
 118:	89 30       	cpi	r24, 0x09	; 9
 11a:	91 05       	cpc	r25, r1
 11c:	31 f0       	breq	.+12     	; 0x12a <__vector_2+0x40>
		index++;
 11e:	01 96       	adiw	r24, 0x01	; 1
 120:	90 93 0b 01 	sts	0x010B, r25	; 0x80010b <__data_end+0x1>
 124:	80 93 0a 01 	sts	0x010A, r24	; 0x80010a <__data_end>
 128:	04 c0       	rjmp	.+8      	; 0x132 <__vector_2+0x48>
	}
	else{
		index = 0;
 12a:	10 92 0b 01 	sts	0x010B, r1	; 0x80010b <__data_end+0x1>
 12e:	10 92 0a 01 	sts	0x010A, r1	; 0x80010a <__data_end>
	}
	wait(300);
 132:	8c e2       	ldi	r24, 0x2C	; 44
 134:	91 e0       	ldi	r25, 0x01	; 1
 136:	c8 df       	rcall	.-112    	; 0xc8 <wait>
}
 138:	ff 91       	pop	r31
 13a:	ef 91       	pop	r30
 13c:	bf 91       	pop	r27
 13e:	af 91       	pop	r26
 140:	9f 91       	pop	r25
 142:	8f 91       	pop	r24
 144:	7f 91       	pop	r23
 146:	6f 91       	pop	r22
 148:	5f 91       	pop	r21
 14a:	4f 91       	pop	r20
 14c:	3f 91       	pop	r19
 14e:	2f 91       	pop	r18
 150:	0f 90       	pop	r0
 152:	0b be       	out	0x3b, r0	; 59
 154:	0f 90       	pop	r0
 156:	0f be       	out	0x3f, r0	; 63
 158:	0f 90       	pop	r0
 15a:	1f 90       	pop	r1
 15c:	18 95       	reti

0000015e <__vector_1>:

/************************/
ISR( INT0_vect )
/***********************/
{
 15e:	1f 92       	push	r1
 160:	0f 92       	push	r0
 162:	0f b6       	in	r0, 0x3f	; 63
 164:	0f 92       	push	r0
 166:	11 24       	eor	r1, r1
 168:	0b b6       	in	r0, 0x3b	; 59
 16a:	0f 92       	push	r0
 16c:	2f 93       	push	r18
 16e:	3f 93       	push	r19
 170:	4f 93       	push	r20
 172:	5f 93       	push	r21
 174:	6f 93       	push	r22
 176:	7f 93       	push	r23
 178:	8f 93       	push	r24
 17a:	9f 93       	push	r25
 17c:	af 93       	push	r26
 17e:	bf 93       	push	r27
 180:	ef 93       	push	r30
 182:	ff 93       	push	r31
	if(index != 0){
 184:	80 91 0a 01 	lds	r24, 0x010A	; 0x80010a <__data_end>
 188:	90 91 0b 01 	lds	r25, 0x010B	; 0x80010b <__data_end+0x1>
 18c:	00 97       	sbiw	r24, 0x00	; 0
 18e:	31 f0       	breq	.+12     	; 0x19c <__vector_1+0x3e>
		index--;
 190:	01 97       	sbiw	r24, 0x01	; 1
 192:	90 93 0b 01 	sts	0x010B, r25	; 0x80010b <__data_end+0x1>
 196:	80 93 0a 01 	sts	0x010A, r24	; 0x80010a <__data_end>
 19a:	06 c0       	rjmp	.+12     	; 0x1a8 <__vector_1+0x4a>
	}
	else{
		index = 10;
 19c:	8a e0       	ldi	r24, 0x0A	; 10
 19e:	90 e0       	ldi	r25, 0x00	; 0
 1a0:	90 93 0b 01 	sts	0x010B, r25	; 0x80010b <__data_end+0x1>
 1a4:	80 93 0a 01 	sts	0x010A, r24	; 0x80010a <__data_end>
	}
	wait(300);
 1a8:	8c e2       	ldi	r24, 0x2C	; 44
 1aa:	91 e0       	ldi	r25, 0x01	; 1
 1ac:	8d df       	rcall	.-230    	; 0xc8 <wait>
}
 1ae:	ff 91       	pop	r31
 1b0:	ef 91       	pop	r30
 1b2:	bf 91       	pop	r27
 1b4:	af 91       	pop	r26
 1b6:	9f 91       	pop	r25
 1b8:	8f 91       	pop	r24
 1ba:	7f 91       	pop	r23
 1bc:	6f 91       	pop	r22
 1be:	5f 91       	pop	r21
 1c0:	4f 91       	pop	r20
 1c2:	3f 91       	pop	r19
 1c4:	2f 91       	pop	r18
 1c6:	0f 90       	pop	r0
 1c8:	0b be       	out	0x3b, r0	; 59
 1ca:	0f 90       	pop	r0
 1cc:	0f be       	out	0x3f, r0	; 63
 1ce:	0f 90       	pop	r0
 1d0:	1f 90       	pop	r1
 1d2:	18 95       	reti

000001d4 <main>:


int main(void)
{
 1d4:	cf 93       	push	r28
 1d6:	df 93       	push	r29
 1d8:	cd b7       	in	r28, 0x3d	; 61
 1da:	de b7       	in	r29, 0x3e	; 62
 1dc:	2a 97       	sbiw	r28, 0x0a	; 10
 1de:	0f b6       	in	r0, 0x3f	; 63
 1e0:	f8 94       	cli
 1e2:	de bf       	out	0x3e, r29	; 62
 1e4:	0f be       	out	0x3f, r0	; 63
 1e6:	cd bf       	out	0x3d, r28	; 61
	const unsigned char numbers[10] = {0x3F, 0x06, 0x5B, 0x4F, 0x66, 0x6D, 0x7D, 0x07, 0x7F, 0x6F};
 1e8:	8a e0       	ldi	r24, 0x0A	; 10
 1ea:	e0 e0       	ldi	r30, 0x00	; 0
 1ec:	f1 e0       	ldi	r31, 0x01	; 1
 1ee:	de 01       	movw	r26, r28
 1f0:	11 96       	adiw	r26, 0x01	; 1
 1f2:	01 90       	ld	r0, Z+
 1f4:	0d 92       	st	X+, r0
 1f6:	8a 95       	dec	r24
 1f8:	e1 f7       	brne	.-8      	; 0x1f2 <main+0x1e>

	// Init I/O
	DDRD = 0xF0;		// PORTD(7:4) output, PORTD(3:0) input
 1fa:	80 ef       	ldi	r24, 0xF0	; 240
 1fc:	81 bb       	out	0x11, r24	; 17
	DDRA = 0xFF;
 1fe:	8f ef       	ldi	r24, 0xFF	; 255
 200:	8a bb       	out	0x1a, r24	; 26

	// Init Interrupt hardware
	EICRA |= 0x0B;			// INT1 falling edge, INT0 rising edge
 202:	ea e6       	ldi	r30, 0x6A	; 106
 204:	f0 e0       	ldi	r31, 0x00	; 0
 206:	80 81       	ld	r24, Z
 208:	8b 60       	ori	r24, 0x0B	; 11
 20a:	80 83       	st	Z, r24
	EIMSK |= 0x03;			// Enable INT1 & INT2
 20c:	89 b7       	in	r24, 0x39	; 57
 20e:	83 60       	ori	r24, 0x03	; 3
 210:	89 bf       	out	0x39, r24	; 57
	
	// Enable global interrupt system
	//SREG = 0x80;			// Of direct via SREG of via wrapper
	sei();
 212:	78 94       	sei
	//PORTA = 0x01;

    /* Replace with your application code */
    while (1) 
    {
		PORTA = numbers[index];
 214:	e0 91 0a 01 	lds	r30, 0x010A	; 0x80010a <__data_end>
 218:	f0 91 0b 01 	lds	r31, 0x010B	; 0x80010b <__data_end+0x1>
 21c:	81 e0       	ldi	r24, 0x01	; 1
 21e:	90 e0       	ldi	r25, 0x00	; 0
 220:	8c 0f       	add	r24, r28
 222:	9d 1f       	adc	r25, r29
 224:	e8 0f       	add	r30, r24
 226:	f9 1f       	adc	r31, r25
 228:	80 81       	ld	r24, Z
 22a:	8b bb       	out	0x1b, r24	; 27
		wait(500);
 22c:	84 ef       	ldi	r24, 0xF4	; 244
 22e:	91 e0       	ldi	r25, 0x01	; 1
 230:	4b df       	rcall	.-362    	; 0xc8 <wait>
    }
 232:	f0 cf       	rjmp	.-32     	; 0x214 <main+0x40>

00000234 <_exit>:
 234:	f8 94       	cli

00000236 <__stop_program>:
 236:	ff cf       	rjmp	.-2      	; 0x236 <__stop_program>
