
Week4_B2.elf:     file format elf32-avr

Sections:
Idx Name          Size      VMA       LMA       File off  Algn
  0 .data         00000000  00800100  00800100  00000128  2**0
                  CONTENTS, ALLOC, LOAD, DATA
  1 .text         000000d4  00000000  00000000  00000054  2**1
                  CONTENTS, ALLOC, LOAD, READONLY, CODE
  2 .comment      00000030  00000000  00000000  00000128  2**0
                  CONTENTS, READONLY
  3 .note.gnu.avr.deviceinfo 00000040  00000000  00000000  00000158  2**2
                  CONTENTS, READONLY
  4 .debug_aranges 00000028  00000000  00000000  00000198  2**0
                  CONTENTS, READONLY, DEBUGGING
  5 .debug_info   000008ad  00000000  00000000  000001c0  2**0
                  CONTENTS, READONLY, DEBUGGING
  6 .debug_abbrev 000007ff  00000000  00000000  00000a6d  2**0
                  CONTENTS, READONLY, DEBUGGING
  7 .debug_line   000002b5  00000000  00000000  0000126c  2**0
                  CONTENTS, READONLY, DEBUGGING
  8 .debug_frame  00000034  00000000  00000000  00001524  2**2
                  CONTENTS, READONLY, DEBUGGING
  9 .debug_str    00000410  00000000  00000000  00001558  2**0
                  CONTENTS, READONLY, DEBUGGING
 10 .debug_ranges 00000018  00000000  00000000  00001968  2**0
                  CONTENTS, READONLY, DEBUGGING

Disassembly of section .text:

00000000 <__vectors>:
   0:	45 c0       	rjmp	.+138    	; 0x8c <__ctors_end>
   2:	00 00       	nop
   4:	4b c0       	rjmp	.+150    	; 0x9c <__bad_interrupt>
   6:	00 00       	nop
   8:	49 c0       	rjmp	.+146    	; 0x9c <__bad_interrupt>
   a:	00 00       	nop
   c:	47 c0       	rjmp	.+142    	; 0x9c <__bad_interrupt>
   e:	00 00       	nop
  10:	45 c0       	rjmp	.+138    	; 0x9c <__bad_interrupt>
  12:	00 00       	nop
  14:	43 c0       	rjmp	.+134    	; 0x9c <__bad_interrupt>
  16:	00 00       	nop
  18:	41 c0       	rjmp	.+130    	; 0x9c <__bad_interrupt>
  1a:	00 00       	nop
  1c:	3f c0       	rjmp	.+126    	; 0x9c <__bad_interrupt>
  1e:	00 00       	nop
  20:	3d c0       	rjmp	.+122    	; 0x9c <__bad_interrupt>
  22:	00 00       	nop
  24:	3b c0       	rjmp	.+118    	; 0x9c <__bad_interrupt>
  26:	00 00       	nop
  28:	39 c0       	rjmp	.+114    	; 0x9c <__bad_interrupt>
  2a:	00 00       	nop
  2c:	37 c0       	rjmp	.+110    	; 0x9c <__bad_interrupt>
  2e:	00 00       	nop
  30:	35 c0       	rjmp	.+106    	; 0x9c <__bad_interrupt>
  32:	00 00       	nop
  34:	33 c0       	rjmp	.+102    	; 0x9c <__bad_interrupt>
  36:	00 00       	nop
  38:	31 c0       	rjmp	.+98     	; 0x9c <__bad_interrupt>
  3a:	00 00       	nop
  3c:	2f c0       	rjmp	.+94     	; 0x9c <__bad_interrupt>
  3e:	00 00       	nop
  40:	2d c0       	rjmp	.+90     	; 0x9c <__bad_interrupt>
  42:	00 00       	nop
  44:	2b c0       	rjmp	.+86     	; 0x9c <__bad_interrupt>
  46:	00 00       	nop
  48:	29 c0       	rjmp	.+82     	; 0x9c <__bad_interrupt>
  4a:	00 00       	nop
  4c:	27 c0       	rjmp	.+78     	; 0x9c <__bad_interrupt>
  4e:	00 00       	nop
  50:	25 c0       	rjmp	.+74     	; 0x9c <__bad_interrupt>
  52:	00 00       	nop
  54:	23 c0       	rjmp	.+70     	; 0x9c <__bad_interrupt>
  56:	00 00       	nop
  58:	21 c0       	rjmp	.+66     	; 0x9c <__bad_interrupt>
  5a:	00 00       	nop
  5c:	1f c0       	rjmp	.+62     	; 0x9c <__bad_interrupt>
  5e:	00 00       	nop
  60:	1d c0       	rjmp	.+58     	; 0x9c <__bad_interrupt>
  62:	00 00       	nop
  64:	1b c0       	rjmp	.+54     	; 0x9c <__bad_interrupt>
  66:	00 00       	nop
  68:	19 c0       	rjmp	.+50     	; 0x9c <__bad_interrupt>
  6a:	00 00       	nop
  6c:	17 c0       	rjmp	.+46     	; 0x9c <__bad_interrupt>
  6e:	00 00       	nop
  70:	15 c0       	rjmp	.+42     	; 0x9c <__bad_interrupt>
  72:	00 00       	nop
  74:	13 c0       	rjmp	.+38     	; 0x9c <__bad_interrupt>
  76:	00 00       	nop
  78:	11 c0       	rjmp	.+34     	; 0x9c <__bad_interrupt>
  7a:	00 00       	nop
  7c:	0f c0       	rjmp	.+30     	; 0x9c <__bad_interrupt>
  7e:	00 00       	nop
  80:	0d c0       	rjmp	.+26     	; 0x9c <__bad_interrupt>
  82:	00 00       	nop
  84:	0b c0       	rjmp	.+22     	; 0x9c <__bad_interrupt>
  86:	00 00       	nop
  88:	09 c0       	rjmp	.+18     	; 0x9c <__bad_interrupt>
	...

0000008c <__ctors_end>:
  8c:	11 24       	eor	r1, r1
  8e:	1f be       	out	0x3f, r1	; 63
  90:	cf ef       	ldi	r28, 0xFF	; 255
  92:	d0 e1       	ldi	r29, 0x10	; 16
  94:	de bf       	out	0x3e, r29	; 62
  96:	cd bf       	out	0x3d, r28	; 61
  98:	07 d0       	rcall	.+14     	; 0xa8 <main>
  9a:	1a c0       	rjmp	.+52     	; 0xd0 <_exit>

0000009c <__bad_interrupt>:
  9c:	b1 cf       	rjmp	.-158    	; 0x0 <__vectors>

0000009e <adcInit>:
#define BIT(x)	(1 << (x))

// Initialize ADC: 
void adcInit( void )
{
	ADMUX = 0b11100001;			// AREF=2,56 V, result left adjusted, channel1 at pin PF1
  9e:	81 ee       	ldi	r24, 0xE1	; 225
  a0:	87 b9       	out	0x07, r24	; 7
	ADCSRA = 0b10000110;		// ADC-enable, no interrupt, no free running, division by 64
  a2:	86 e8       	ldi	r24, 0x86	; 134
  a4:	86 b9       	out	0x06, r24	; 6
  a6:	08 95       	ret

000000a8 <main>:


// Main program: Counting on T1
int main( void )
{
	DDRF = 0x00;					// set PORTF for input (ADC)
  a8:	10 92 61 00 	sts	0x0061, r1	; 0x800061 <__TEXT_REGION_LENGTH__+0x7e0061>
	DDRA = 0xFF;					// set PORTA for output 
  ac:	8f ef       	ldi	r24, 0xFF	; 255
  ae:	8a bb       	out	0x1a, r24	; 26
	adcInit();						// initialize ADC
  b0:	f6 df       	rcall	.-20     	; 0x9e <adcInit>

	while (1)
	{
		ADCSRA |= BIT(6);				// Start ADC
  b2:	36 9a       	sbi	0x06, 6	; 6
		while ( ADCSRA & BIT(6) ) ;		// Wait for completion
  b4:	36 99       	sbic	0x06, 6	; 6
  b6:	fe cf       	rjmp	.-4      	; 0xb4 <main+0xc>
		PORTA = ADCH;					// Show MSB (bit 9:2) of ADC
  b8:	85 b1       	in	r24, 0x05	; 5
  ba:	8b bb       	out	0x1b, r24	; 27
	#else
		//round up by default
		__ticks_dc = (uint32_t)(ceil(fabs(__tmp)));
	#endif

	__builtin_avr_delay_cycles(__ticks_dc);
  bc:	2f e7       	ldi	r18, 0x7F	; 127
  be:	84 e8       	ldi	r24, 0x84	; 132
  c0:	9e e1       	ldi	r25, 0x1E	; 30
  c2:	21 50       	subi	r18, 0x01	; 1
  c4:	80 40       	sbci	r24, 0x00	; 0
  c6:	90 40       	sbci	r25, 0x00	; 0
  c8:	e1 f7       	brne	.-8      	; 0xc2 <main+0x1a>
  ca:	00 c0       	rjmp	.+0      	; 0xcc <main+0x24>
  cc:	00 00       	nop
  ce:	f1 cf       	rjmp	.-30     	; 0xb2 <main+0xa>

000000d0 <_exit>:
  d0:	f8 94       	cli

000000d2 <__stop_program>:
  d2:	ff cf       	rjmp	.-2      	; 0xd2 <__stop_program>
